{"network":"polygon","contract":"Deployer","address":"0x155001e5b47Ae867a19e3d22c697d226786A13F6","deployed":false,"error":{"reason":"processing response error","code":"SERVER_ERROR","body":"{\"jsonrpc\":\"2.0\",\"id\":55,\"error\":{\"code\":-32000,\"message\":\"transaction underpriced\"}}","error":{"code":-32000},"requestBody":"{\"method\":\"eth_sendRawTransaction\",\"params\":[\"0x02f90fd28189048459682f008459682f1e8316e3609413b0d85ccb8bf860b6b79af3029fca081ae9bef280b90f6466cfa0570000000000000000000000000000000000000000000000000000000000000000e314d26509d9a1bb42f69f3a2d979d7fdf85027414a0fc7cf6a8f1deb845d56200000000000000000000000000000000000000000000000000000000000000600000000000000000000000000000000000000000000000000000000000000ece60806040523480156200001157600080fd5b5060405162000eae38038062000eae8339818101604052810190620000379190620001a5565b620000576200004b6200006f60201b60201c565b6200007760201b60201c565b62000068816200007760201b60201c565b50620001d7565b600033905090565b60008060009054906101000a900473ffffffffffffffffffffffffffffffffffffffff169050816000806101000a81548173ffffffffffffffffffffffffffffffffffffffff021916908373ffffffffffffffffffffffffffffffffffffffff1602179055508173ffffffffffffffffffffffffffffffffffffffff168173ffffffffffffffffffffffffffffffffffffffff167f8be0079c531659141344cd1fd0a4f28419497f9722a3daafe3b4186f6b6457e060405160405180910390a35050565b600080fd5b600073ffffffffffffffffffffffffffffffffffffffff82169050919050565b60006200016d8262000140565b9050919050565b6200017f8162000160565b81146200018b57600080fd5b50565b6000815190506200019f8162000174565b92915050565b600060208284031215620001be57620001bd6200013b565b5b6000620001ce848285016200018e565b91505092915050565b610cc780620001e76000396000f3fe608060405234801561001057600080fd5b50600436106100625760003560e01c8063481286e61461006757806356299481146100975780635858aa3d146100c7578063715018a6146100e35780638da5cb5b146100ed578063f2fde38b1461010b575b600080fd5b610081600480360381019061007c9190610607565b610127565b60405161008e9190610688565b60405180910390f35b6100b160048036038101906100ac91906106cf565b61013b565b6040516100be9190610688565b60405180910390f35b6100e160048036038101906100dc919061089e565b610151565b005b6100eb6101de565b005b6100f5610266565b6040516101029190610688565b60405180910390f35b6101256004803603810190610120919061090d565b61028f565b005b60006101338383610387565b905092915050565b600061014884848461039c565b90509392505050565b6101596103e0565b73ffffffffffffffffffffffffffffffffffffffff16610177610266565b73ffffffffffffffffffffffffffffffffffffffff16146101cd576040517f08c379a00000000000000000000000000000000000000000000000000000000081526004016101c490610997565b60405180910390fd5b6101d88383836103e8565b50505050565b6101e66103e0565b73ffffffffffffffffffffffffffffffffffffffff16610204610266565b73ffffffffffffffffffffffffffffffffffffffff161461025a576040517f08c379a000000000000000000000000000000000000000000000000000000000815260040161025190610997565b60405180910390fd5b61026460006104f9565b565b60008060009054906101000a900473ffffffffffffffffffffffffffffffffffffffff16905090565b6102976103e0565b73ffffffffffffffffffffffffffffffffffffffff166102b5610266565b73ffffffffffffffffffffffffffffffffffffffff161461030b576040517f08c379a000000000000000000000000000000000000000000000000000000000815260040161030290610997565b60405180910390fd5b600073ffffffffffffffffffffffffffffffffffffffff168173ffffffffffffffffffffffffffffffffffffffff16141561037b576040517f08c379a000000000000000000000000000000000000000000000000000000000815260040161037290610a29565b60405180910390fd5b610384816104f9565b50565b600061039483833061039c565b905092915050565b60008060ff60f81b8386866040516020016103ba9493929190610aff565b6040516020818303038152906040528051906020012090508060001c9150509392505050565b600033905090565b6000808447101561042e576040517f08c379a000000000000000000000000000000000000000000000000000000000815260040161042590610b99565b60405180910390fd5b600083511415610473576040517f08c379a000000000000000000000000000000000000000000000000000000000815260040161046a90610c05565b60405180910390fd5b8383516020850187f59050600073ffffffffffffffffffffffffffffffffffffffff168173ffffffffffffffffffffffffffffffffffffffff1614156104ee576040517f08c379a00000000000000000000000000000000000000000000000000000000081526004016104e590610c71565b60405180910390fd5b809150509392505050565b60008060009054906101000a900473ffffffffffffffffffffffffffffffffffffffff169050816000806101000a81548173ffffffffffffffffffffffffffffffffffffffff021916908373ffffffffffffffffffffffffffffffffffffffff1602179055508173ffffffffffffffffffffffffffffffffffffffff168173ffffffffffffffffffffffffffffffffffffffff167f8be0079c531659141344cd1fd0a4f28419497f9722a3daafe3b4186f6b6457e060405160405180910390a35050565b6000604051905090565b600080fd5b600080fd5b6000819050919050565b6105e4816105d1565b81146105ef57600080fd5b50565b600081359050610601816105db565b92915050565b6000806040838503121561061e5761061d6105c7565b5b600061062c858286016105f2565b925050602061063d858286016105f2565b9150509250929050565b600073ffffffffffffffffffffffffffffffffffffffff82169050919050565b600061067282610647565b9050919050565b61068281610667565b82525050565b600060208201905061069d6000830184610679565b92915050565b6106ac81610667565b81146106b757600080fd5b50565b6000813590506106c9816106a3565b92915050565b6000806000606084860312156106e8576106e76105c7565b5b60006106f6868287016105f2565b9350506020610707868287016105f2565b9250506040610718868287016106ba565b9150509250925092565b6000819050919050565b61073581610722565b811461074057600080fd5b50565b6000813590506107528161072c565b92915050565b600080fd5b600080fd5b6000601f19601f8301169050919050565b7f4e487b7100000000000000000000000000000000000000000000000000000000600052604160045260246000fd5b6107ab82610762565b810181811067ffffffffffffffff821117156107ca576107c9610773565b5b80604052505050565b60006107dd6105bd565b90506107e982826107a2565b919050565b600067ffffffffffffffff82111561080957610808610773565b5b61081282610762565b9050602081019050919050565b82818337600083830152505050565b600061084161083c846107ee565b6107d3565b90508281526020810184848401111561085d5761085c61075d565b5b61086884828561081f565b509392505050565b600082601f83011261088557610884610758565b5b813561089584826020860161082e565b91505092915050565b6000806000606084860312156108b7576108b66105c7565b5b60006108c586828701610743565b93505060206108d6868287016105f2565b925050604084013567ffffffffffffffff8111156108f7576108f66105cc565b5b61090386828701610870565b9150509250925092565b600060208284031215610923576109226105c7565b5b6000610931848285016106ba565b91505092915050565b600082825260208201905092915050565b7f4f776e61626c653a2063616c6c6572206973206e6f7420746865206f776e6572600082015250565b600061098160208361093a565b915061098c8261094b565b602082019050919050565b600060208201905081810360008301526109b081610974565b9050919050565b7f4f776e61626c653a206e6577206f776e657220697320746865207a65726f206160008201527f6464726573730000000000000000000000000000000000000000000000000000602082015250565b6000610a1360268361093a565b9150610a1e826109b7565b604082019050919050565b60006020820190508181036000830152610a4281610a06565b9050919050565b60007fff0000000000000000000000000000000000000000000000000000000000000082169050919050565b6000819050919050565b610a90610a8b82610a49565b610a75565b82525050565b60008160601b9050919050565b6000610aae82610a96565b9050919050565b6000610ac082610aa3565b9050919050565b610ad8610ad382610667565b610ab5565b82525050565b6000819050919050565b610af9610af4826105d1565b610ade565b82525050565b6000610b0b8287610a7f565b600182019150610b1b8286610ac7565b601482019150610b2b8285610ae8565b602082019150610b3b8284610ae8565b60208201915081905095945050505050565b7f437265617465323a20696e73756666696369656e742062616c616e6365000000600082015250565b6000610b83601d8361093a565b9150610b8e82610b4d565b602082019050919050565b60006020820190508181036000830152610bb281610b76565b9050919050565b7f437265617465323a2062797465636f6465206c656e677468206973207a65726f600082015250565b6000610bef60208361093a565b9150610bfa82610bb9565b602082019050919050565b60006020820190508181036000830152610c1e81610be2565b9050919050565b7f437265617465323a204661696c6564206f6e206465706c6f7900000000000000600082015250565b6000610c5b60198361093a565b9150610c6682610c25565b602082019050919050565b60006020820190508181036000830152610c8a81610c4e565b905091905056fea26469706673582212200d80baf6e1d877666963dbc8bc691795ad2ab2a24fd8a491302acd9a9078c30264736f6c634300080b00330000000000000000000000004e8dc98840c34f91454f9c7e940313b53d3514d7000000000000000000000000000000000000c080a09cf5f0d9a71acba488dd3bcf91e20c41968c2f6d8bd74a2ff5efdd9fc98eed4aa06b8c08f7b713cf0cc1ebd701f364d1dad5773fbf2f9eb993afccf11fd996b7f1\"],\"id\":55,\"jsonrpc\":\"2.0\"}","requestMethod":"POST","url":"https://polygon-mainnet.infura.io/v3/12c9c2f05c7b43ed881f2bd91824234a","transaction":{"type":2,"chainId":137,"nonce":4,"maxPriorityFeePerGas":{"type":"BigNumber","hex":"0x59682f00"},"maxFeePerGas":{"type":"BigNumber","hex":"0x59682f1e"},"gasPrice":null,"gasLimit":{"type":"BigNumber","hex":"0x16e360"},"to":"0x13b0D85CcB8bf860b6b79AF3029fCA081AE9beF2","value":{"type":"BigNumber","hex":"0x00"},"data":"0x66cfa0570000000000000000000000000000000000000000000000000000000000000000e314d26509d9a1bb42f69f3a2d979d7fdf85027414a0fc7cf6a8f1deb845d56200000000000000000000000000000000000000000000000000000000000000600000000000000000000000000000000000000000000000000000000000000ece60806040523480156200001157600080fd5b5060405162000eae38038062000eae8339818101604052810190620000379190620001a5565b620000576200004b6200006f60201b60201c565b6200007760201b60201c565b62000068816200007760201b60201c565b50620001d7565b600033905090565b60008060009054906101000a900473ffffffffffffffffffffffffffffffffffffffff169050816000806101000a81548173ffffffffffffffffffffffffffffffffffffffff021916908373ffffffffffffffffffffffffffffffffffffffff1602179055508173ffffffffffffffffffffffffffffffffffffffff168173ffffffffffffffffffffffffffffffffffffffff167f8be0079c531659141344cd1fd0a4f28419497f9722a3daafe3b4186f6b6457e060405160405180910390a35050565b600080fd5b600073ffffffffffffffffffffffffffffffffffffffff82169050919050565b60006200016d8262000140565b9050919050565b6200017f8162000160565b81146200018b57600080fd5b50565b6000815190506200019f8162000174565b92915050565b600060208284031215620001be57620001bd6200013b565b5b6000620001ce848285016200018e565b91505092915050565b610cc780620001e76000396000f3fe608060405234801561001057600080fd5b50600436106100625760003560e01c8063481286e61461006757806356299481146100975780635858aa3d146100c7578063715018a6146100e35780638da5cb5b146100ed578063f2fde38b1461010b575b600080fd5b610081600480360381019061007c9190610607565b610127565b60405161008e9190610688565b60405180910390f35b6100b160048036038101906100ac91906106cf565b61013b565b6040516100be9190610688565b60405180910390f35b6100e160048036038101906100dc919061089e565b610151565b005b6100eb6101de565b005b6100f5610266565b6040516101029190610688565b60405180910390f35b6101256004803603810190610120919061090d565b61028f565b005b60006101338383610387565b905092915050565b600061014884848461039c565b90509392505050565b6101596103e0565b73ffffffffffffffffffffffffffffffffffffffff16610177610266565b73ffffffffffffffffffffffffffffffffffffffff16146101cd576040517f08c379a00000000000000000000000000000000000000000000000000000000081526004016101c490610997565b60405180910390fd5b6101d88383836103e8565b50505050565b6101e66103e0565b73ffffffffffffffffffffffffffffffffffffffff16610204610266565b73ffffffffffffffffffffffffffffffffffffffff161461025a576040517f08c379a000000000000000000000000000000000000000000000000000000000815260040161025190610997565b60405180910390fd5b61026460006104f9565b565b60008060009054906101000a900473ffffffffffffffffffffffffffffffffffffffff16905090565b6102976103e0565b73ffffffffffffffffffffffffffffffffffffffff166102b5610266565b73ffffffffffffffffffffffffffffffffffffffff161461030b576040517f08c379a000000000000000000000000000000000000000000000000000000000815260040161030290610997565b60405180910390fd5b600073ffffffffffffffffffffffffffffffffffffffff168173ffffffffffffffffffffffffffffffffffffffff16141561037b576040517f08c379a000000000000000000000000000000000000000000000000000000000815260040161037290610a29565b60405180910390fd5b610384816104f9565b50565b600061039483833061039c565b905092915050565b60008060ff60f81b8386866040516020016103ba9493929190610aff565b6040516020818303038152906040528051906020012090508060001c9150509392505050565b600033905090565b6000808447101561042e576040517f08c379a000000000000000000000000000000000000000000000000000000000815260040161042590610b99565b60405180910390fd5b600083511415610473576040517f08c379a000000000000000000000000000000000000000000000000000000000815260040161046a90610c05565b60405180910390fd5b8383516020850187f59050600073ffffffffffffffffffffffffffffffffffffffff168173ffffffffffffffffffffffffffffffffffffffff1614156104ee576040517f08c379a00000000000000000000000000000000000000000000000000000000081526004016104e590610c71565b60405180910390fd5b809150509392505050565b60008060009054906101000a900473ffffffffffffffffffffffffffffffffffffffff169050816000806101000a81548173ffffffffffffffffffffffffffffffffffffffff021916908373ffffffffffffffffffffffffffffffffffffffff1602179055508173ffffffffffffffffffffffffffffffffffffffff168173ffffffffffffffffffffffffffffffffffffffff167f8be0079c531659141344cd1fd0a4f28419497f9722a3daafe3b4186f6b6457e060405160405180910390a35050565b6000604051905090565b600080fd5b600080fd5b6000819050919050565b6105e4816105d1565b81146105ef57600080fd5b50565b600081359050610601816105db565b92915050565b6000806040838503121561061e5761061d6105c7565b5b600061062c858286016105f2565b925050602061063d858286016105f2565b9150509250929050565b600073ffffffffffffffffffffffffffffffffffffffff82169050919050565b600061067282610647565b9050919050565b61068281610667565b82525050565b600060208201905061069d6000830184610679565b92915050565b6106ac81610667565b81146106b757600080fd5b50565b6000813590506106c9816106a3565b92915050565b6000806000606084860312156106e8576106e76105c7565b5b60006106f6868287016105f2565b9350506020610707868287016105f2565b9250506040610718868287016106ba565b9150509250925092565b6000819050919050565b61073581610722565b811461074057600080fd5b50565b6000813590506107528161072c565b92915050565b600080fd5b600080fd5b6000601f19601f8301169050919050565b7f4e487b7100000000000000000000000000000000000000000000000000000000600052604160045260246000fd5b6107ab82610762565b810181811067ffffffffffffffff821117156107ca576107c9610773565b5b80604052505050565b60006107dd6105bd565b90506107e982826107a2565b919050565b600067ffffffffffffffff82111561080957610808610773565b5b61081282610762565b9050602081019050919050565b82818337600083830152505050565b600061084161083c846107ee565b6107d3565b90508281526020810184848401111561085d5761085c61075d565b5b61086884828561081f565b509392505050565b600082601f83011261088557610884610758565b5b813561089584826020860161082e565b91505092915050565b6000806000606084860312156108b7576108b66105c7565b5b60006108c586828701610743565b93505060206108d6868287016105f2565b925050604084013567ffffffffffffffff8111156108f7576108f66105cc565b5b61090386828701610870565b9150509250925092565b600060208284031215610923576109226105c7565b5b6000610931848285016106ba565b91505092915050565b600082825260208201905092915050565b7f4f776e61626c653a2063616c6c6572206973206e6f7420746865206f776e6572600082015250565b600061098160208361093a565b915061098c8261094b565b602082019050919050565b600060208201905081810360008301526109b081610974565b9050919050565b7f4f776e61626c653a206e6577206f776e657220697320746865207a65726f206160008201527f6464726573730000000000000000000000000000000000000000000000000000602082015250565b6000610a1360268361093a565b9150610a1e826109b7565b604082019050919050565b60006020820190508181036000830152610a4281610a06565b9050919050565b60007fff0000000000000000000000000000000000000000000000000000000000000082169050919050565b6000819050919050565b610a90610a8b82610a49565b610a75565b82525050565b60008160601b9050919050565b6000610aae82610a96565b9050919050565b6000610ac082610aa3565b9050919050565b610ad8610ad382610667565b610ab5565b82525050565b6000819050919050565b610af9610af4826105d1565b610ade565b82525050565b6000610b0b8287610a7f565b600182019150610b1b8286610ac7565b601482019150610b2b8285610ae8565b602082019150610b3b8284610ae8565b60208201915081905095945050505050565b7f437265617465323a20696e73756666696369656e742062616c616e6365000000600082015250565b6000610b83601d8361093a565b9150610b8e82610b4d565b602082019050919050565b60006020820190508181036000830152610bb281610b76565b9050919050565b7f437265617465323a2062797465636f6465206c656e677468206973207a65726f600082015250565b6000610bef60208361093a565b9150610bfa82610bb9565b602082019050919050565b60006020820190508181036000830152610c1e81610be2565b9050919050565b7f437265617465323a204661696c6564206f6e206465706c6f7900000000000000600082015250565b6000610c5b60198361093a565b9150610c6682610c25565b602082019050919050565b60006020820190508181036000830152610c8a81610c4e565b905091905056fea26469706673582212200d80baf6e1d877666963dbc8bc691795ad2ab2a24fd8a491302acd9a9078c30264736f6c634300080b00330000000000000000000000004e8dc98840c34f91454f9c7e940313b53d3514d7000000000000000000000000000000000000","accessList":[],"hash":"0xe980cca38ab857dd94961a34d4ecd06e176e88c502cc13dece4774f5b7ea4e37","v":0,"r":"0x9cf5f0d9a71acba488dd3bcf91e20c41968c2f6d8bd74a2ff5efdd9fc98eed4a","s":"0x6b8c08f7b713cf0cc1ebd701f364d1dad5773fbf2f9eb993afccf11fd996b7f1","from":"0x4e8dc98840C34F91454f9C7E940313b53D3514D7","confirmations":0},"transactionHash":"0xe980cca38ab857dd94961a34d4ecd06e176e88c502cc13dece4774f5b7ea4e37"}}